:030000000208D61D
:0C08D600787FE4F6D8FD75810C02080064
:10085C0020796F752061726520494E200020796FD8
:0B086C007520617265204F555420007C
:10080000120890C2A330A2151208907BFF7A0879D3
:100810005C120837D2A37F107E271208A420A2E51D
:100820001208907BFF7A087969120837C2A37F10FB
:070830007E271208A480CE10
:1008A400E4FDFCC3ED9FEC9E50070DBD00010C80E0
:0108B400F251
:0108B5002220
:100890007F381208B67F0C1208B67F011208B67FA7
:0408A000800208B614
:1008B600C2A08FB0D2A17FC87E001208A4C2A12216
:1008C600D2A08FB0D2A17F647E001208A4C2A1225A
:100837008B088A09890AAB08AA09A90A12087760EE
:1008470013050AE50A7002050914F9120877FF1261
:0508570008C680E2224A
:10087700BB010689828A83E0225002E722BBFE027F
:09088700E32289828A83E49322B2
:00000001FF
