:03000000020952A0
:0C095200787FE4F6D8FD75810A02089257
:10080000204155544F4D4154454420444F4F5220B0
:1008100000204F50454E494E472053595354454DA3
:10082000200020706C6561736520776169742E2EDD
:10083000200020706C7A20454E5445522000202024
:0A084000202020202020202020008E
:1008920012091E7BFF7A0879001208CA7FC012096A
:1008A200327BFF7A0879111208CA1209087F0112F5
:1008B20009327F801209327BFF7A0879221208CA34
:0808C20012084A12090880F82F
:10084A0030A23D7FC01209327BFF7A087932120842
:10085A00CAD2A3C2A47F507EC312090CC2A3C2A4E7
:10086A00120908D2A4C2A37F507EC312090CC2A3E4
:10087A00C2A47FC01209327BFF7A08793E0208CAF5
:08088A0020A204C2A3C2A422B3
:040908007FE87EFD09
:10090C00E4FDFCC3ED9FEC9E50070DBD00010C8077
:01091C00F2E8
:01091D0022B7
:10091E007F381209327F0C1209327F011209327FA1
:04092E008002093208
:10093200C2A08FB0D2A17FC87E0012090CC2A12230
:10094200D2A08FB0D2A17F647E0012090CC2A12274
:1008CA008B088A09890AAB08AA09A90A1208EF60E3
:1008DA0013050AE50A7002050914F91208EFFF1256
:0508EA00094280E2223A
:1008EF00BB010689828A83E0225002E722BBFE0207
:0908FF00E32289828A83E493223A
:00000001FF
