:030000000208C72C
:0C08C700787FE4F6D8FD75810A0208472E
:10082500204155544F4D4154454420444F4F52208B
:1008350000204F50454E494E472053595354454D7E
:02084500200091
:100847001208817BFF7A0879251208007FC01208F9
:10085700A77BFF7A0879361208007FE87EFD020839
:0108670095FB
:10089500E4FDFCC3ED9FEC9E50070DBD00010C80EF
:0108A500F260
:0108A600222F
:100881007F381208A77F0C1208A77F011208A77FE3
:04089100800208A732
:1008A700C2A08FB0D2A17FC87E00120895C2A12234
:1008B700D2A08FB0D2A17F647E00120895C2A12278
:100800008B088A09890AAB08AA09A90A1208686034
:1008100013050AE50A7002050914F9120868FF12A7
:0508200008B780E22290
:10086800BB010689828A83E0225002E722BBFE028E
:09087800E32289828A83E49322C1
:00000001FF
