:03000000020800F3
:0C080000787FE4F6D8FD7581700208478F
:1008D500202F082057454C434F4D45204D59204E5C
:1008E500414D452049532056454E4B4154455348AB
:1008F500202C20454345202D203120484F4E4F5276
:0209050053207D
:10088C0012094AE4F56BF56CF569756A0FC3E56AF4
:10089C00942FE569940050307F8012095EE56C243A
:1008AC000FF56AE4356BF569AD6AFCAF6CAE6B1293
:1008BC000908056CE56C7002056B7FC07EDA1209C5
:0908CC00387F0C12095E80C52280
:10094A007F3812095E7F0C12095E7F0112095E7FF1
:04095A008002095EB0
:08095E00C2A0120930D2A1224F
:08096600D2A0120930D2A12237
:100908008C6F8D708E6D8F6EC3E56E9570E56D95ED
:100918006F50147408256EF8E6FF120966056EE537
:080928006E70E5056D80E1220F
:080930008FB0C2A17F057E001B
:10093800E4FDFCC3ED9FEC9E50070DBD00010C804B
:01094800F2BC
:01094900228B
:10080C0002088CE493A3F8E493A34003F68001F26E
:10081C0008DFF48029E493A3F85407240CC8C333ED
:10082C00C4540F4420C8834004F456800146F6DFBC
:10083C00E4800B01020408102040809008D5E47E6F
:10084C00019360BCA3FF543F30E509541FFEE493B1
:10085C00A360010ECF54C025E060A840B8E493A378
:10086C00FAE493A3F8E493A3C8C582C8CAC583CAA3
:10087C00F0A3C8C582C8CAC583CADFE9DEE780BE5B
:0109070000EF
:00000001FF
