:03000000020800F3
:0C080000787FE4F6D8FD75810F020847F0
:0409A800020E00003B
:1008E100E4F508F509F50AF50B12098130A0117F2D
:1008F100507EC312096F050FE50F7016050E8012A9
:1009010030A10F7F507EC312096FE50F150F7002E2
:10091100150E120981E50F24FFFFE50E34FFFE12CB
:04092100092580C85C
:100981007F381209A07F0C1209A07F011209A07FF4
:04099100800209A037
:0809A000C2B0120967D2B122B6
:030995002430FF0C
:08099800D2B0120967D2B122AE
:04092500AB07AA066C
:100929007C007D0A12088C8D0DAE02AF037C007D20
:100939000A12088CEF75F00A8485F00CEF75F00A3D
:100949008412099512096BE50C12099512096BE5D8
:0E0959000D2430FF1209987F887E1302096F6B
:080967008F90C2B17FF47E0104
:10096F00E4FDFCC3ED9FEC9E50070DBD00010C8014
:01097F00F285
:010980002254
:10080C000208E1E493A3F8E493A34003F68001F219
:10081C0008DFF48029E493A3F85407240CC8C333ED
:10082C00C4540F4420C8834004F456800146F6DFBC
:10083C00E4800B01020408102040809009A8E47E9B
:10084C00019360BCA3FF543F30E509541FFEE493B1
:10085C00A360010ECF54C025E060A840B8E493A378
:10086C00FAE493A3F8E493A3C8C582C8CAC583CAA3
:10087C00F0A3C8C582C8CAC583CADFE9DEE780BE5B
:0109AC00004A
:10088C00BC000BBE0029EF8DF084FFADF022E4CC50
:10089C00F875F008EF2FFFEE33FEEC33FCEE9DEC19
:1008AC00984005FCEE9DFE0FD5F0E9E4CEFD22ED5F
:1008BC00F8F5F0EE8420D21CFEADF075F008EF2FA9
:1008CC00FFED33FD4007985006D5F0F222C398FD9A
:0508DC000FD5F0EA2237
:00000001FF
