:03000000020800F3
:0C080000787FE4F6D8FD7581720208478D
:1008D5002031082057454C434F4D45204D59204E5A
:1008E500414D45204953202056454E4B41544553D3
:1008F5004820202C20454345202D203120484F4EAF
:040905004F525320DA
:10088C0012094CE4F56DF56EF56B756C0FC3E56CE8
:10089C00942FE56B940050307F80120960E56E2434
:1008AC000FF56CE4356DF56BAD6CFCAF6EAE6D1287
:1008BC00090A056EE56E7002056D7FC07EDA1209BD
:0908CC003A7F0C12096080C5227C
:10094C007F381209607F0C1209607F011209607FE9
:04095C0080020960AC
:08096000C2A0120932D2A1224B
:08096800D2A0120932D2A12233
:10090A008C718D728E6F8F70C3E5709572E56F95DD
:10091A0071501474082570F8E6FF1209680570E52D
:08092A007070E5056F80E12209
:080932008FB0C2A17F057E0019
:10093A00E4FDFCC3ED9FEC9E50070DBD00010C8049
:01094A00F2BA
:01094B002289
:10080C0002088CE493A3F8E493A34003F68001F26E
:10081C0008DFF48029E493A3F85407240CC8C333ED
:10082C00C4540F4420C8834004F456800146F6DFBC
:10083C00E4800B01020408102040809008D5E47E6F
:10084C00019360BCA3FF543F30E509541FFEE493B1
:10085C00A360010ECF54C025E060A840B8E493A378
:10086C00FAE493A3F8E493A3C8C582C8CAC583CAA3
:10087C00F0A3C8C582C8CAC583CADFE9DEE780BE5B
:0109090000ED
:00000001FF
