:030000000208D81B
:0C08D800787FE4F6D8FD75811002091F3E
:1009AC00205741544552204C4556454C3A20005056
:1009BC00554D503A20202020202000313030250089
:1009CC003735250035302500323525003025002DF2
:1009DC00004F4646004F4E004D414E55414C004194
:0409EC0055544F000F
:0C0AAA00020A0000020C0000020800001C
:10096400120A6420A40A750A00750B01C2A3800C44
:1009740030A409E4F50AF50BD2A3D2A27BFF7A09CD
:1009840079AC1209F01208007FC0120A8A7BFF7A40
:100994000979BB1209F0120A157FCA120A8A120ACF
:0809A400307FE87EFD020A78B5
:1008000020932B2092282091252090227F8D120A60
:100810008A7BFF7A0979C71209F0E50B6401450A62
:1008200060030208D7C2A2F50CF50DD2A3223093C3
:100830002420922120911E20901B7F8D120A8A7BFA
:10084000FF7A0979CC1209F0E50B6401450A6003CF
:100850000208D7804630932130921E20911B2090B1
:10086000187F8D120A8A7BFF7A0979D01209F0E588
:100870000B6401450A70608022309323309220304F
:10088000911D20901A7F8D120A8A7BFF7A0979D4F4
:100890001209F0E50B6401450A703CD2A2802430B5
:1008A000932730922430912130901E7F8D120A8A36
:1008B0007BFF7A0979D81209F0E50B6401450A70CB
:1008C00016C2A2F50C750D01227F8E120A8A7BFFDB
:0808D0007A0979DB1209F0221C
:100A15007FC5120A8AE50D450C7BFF70067A0979B8
:0B0A2500DD80047A0979E11209F0225B
:100A30007FCA120A8AE50B450A7BFF70067A09799C
:0B0A4000E480047A0979EB1209F0222F
:100A7800E4FDFCC3ED9FEC9E50070DBD00010C800A
:010A8800F27B
:010A8900224A
:100A64007F38120A8A7F0C120A8A7F01120A8A7F4F
:040A740080020A8A68
:100A8A00C2A08FB0D2A17FC87E00120A78C2A1226A
:100A9A00D2A08FB0D2A17F647E00120A78C2A122AE
:1009F0008B0E8A0F8910AB0EAA0FA910120A4B603A
:100A0000130510E5107002050F14F9120A4BFF12BE
:050A10000A9A80E222B9
:1008E400020964E493A3F8E493A34003F68001F2BD
:1008F40008DFF48029E493A3F85407240CC8C33315
:10090400C4540F4420C8834004F456800146F6DFE3
:10091400E4800B0102040810204080900AAAE47EBF
:10092400019360BCA3FF543F30E509541FFEE493D8
:10093400A360010ECF54C025E060A840B8E493A39F
:10094400FAE493A3F8E493A3C8C582C8CAC583CACA
:10095400F0A3C8C582C8CAC583CADFE9DEE780BE82
:010AB600003F
:100A4B00BB010689828A83E0225002E722BBFE02A9
:090A5B00E32289828A83E49322DC
:00000001FF
