:03000000020E09E4
:0C0E0900787FE4F6D8FD75813E020D0DE7
:100D0D0075240075232A752204752147E4F52CF509
:100D1D002B752A7F752943F530752F40752E1C755F
:100D2D002D46F53475334075321C753146F538F561
:100D3D00377536C875354275283375271375269561
:100D4D00752543AB38AA37A936A835AF2CAE2BADD8
:100D5D002AAC29120803C004C005C006C007AF386D
:100D6D00AE37AD36AC35AB30AA2FA92EA82D120853
:100D7D00F8D003D002D001D000120A01AB34AA334F
:100D8D00A932A831120A01120C0CC004C005C0060C
:100D9D00C007AB24AA23A922A821E4FFFE7D807CF5
:100DAD003F120A01D003D002D001D0001208F8C0C2
:100DBD0004C005C006C007AB28AA27A926A825E4AC
:100DCD00FFFE7D807C3F120A01D003D002D001D0FE
:100DDD0000120807AB07AA06A905A804E4FFFE7DCB
:100DED00807C3F120A017B337A93798878C312088D
:0B0DFD0007120A9E8E398F3AE4FEFFB9
:010E080022C7
:10080000020B0AE86480F8E933E83360110460F011
:10081000ED33EC337009E8FCE9FDEAFEEBFF22045E
:1008200060DED3EB9FEA9EE99DE8C2E78CF0C2F759
:1008300095F0400CE8CCF8E9CDF9EACEFAEBCFFB25
:10084000120AD585D0F05804700320D5B3E804709F
:10085000075002B2D5020B1492D5EC0460F7E4CC39
:10086000C0E0C398F8603B94186008400DD0E0FBEE
:10087000020AECE4FBFAC9FC8028E830E406E4C98B
:10088000FBE4CAFCE830E305E4C9CACBFCE8540742
:100890006010F8C3E913F9EA13FAEB13FBEC13FC4D
:1008A000D8F130F52FC3E49CFCEF9BFFEE9AFEEDF0
:1008B00099FDD0E0FBEF4E4D4C701222DB03020B92
:1008C00011EC2CFCEF33FFEE33FEED33FDED30E7A2
:1008D000EB020AECEF2BFFEE3AFEED39FDD0E0FB28
:1008E00050130BBB0003020B14ED13FDEE13FEEFD0
:0808F00013FFEC13FC020AECFB
:1008F800EC4D6011E8497017ED33EC3304600DE4FA
:10090800FCFFFEFD22E933E8330470F8020B0A12FB
:100918000AD558046009E4CC2481500628500902FD
:100928000B14284003020B11C0E0EB4A7044B98055
:1009380006D0E0FB020B00EF4E701CBD8008EBFFF9
:10094800EAFEE9FD80EBE98DF0A4FEE5F00209E19D
:10095800E9CDF9EAFEEBFFEF89F0A4FCE5F0CE89DA
:10096800F0A42EFFE435F0CD89F0A42DFEE435F097
:100978008067EF4E7005BD80D780C3EF8BF0A4ACC5
:10098800F0EE8BF0A42CFCE435F0F8EF8AF0A42C00
:10099800E5F038FCE433CB8DF0A42CFCE5F03BF813
:1009A800EE8AF0A42CFCE5F038F8E433CF89F0A403
:1009B8002CFCE5F038CF3400CE89F0A42FFFE5F009
:1009C8003EFEE433C98DF0A42EFEE5F039CD8AF061
:1009D800A42FFFE5F03EFEE43DFD33D0E0FB5007D9
:1009E8000BBB000F020B14EC2CFCEF33FFEE33FEB5
:0609F800ED33FD020AECE4
:1009FE00020B14EC5D046005E859047003020B0A47
:100A0E00120AD5580460F6EC4860F2EC7004FDFE54
:100A1E00FF22C860DB2481C85009C39860025006CB
:100A2E00020B119850CAF582E9294B4A7005AB8228
:100A3E00020B0075F0007C1A7880C3EF9BEE9AEDE6
:100A4E0099400DC3EF9BFFEE9AFEED99FDE842F043
:100A5E00DC23ACF0D0E0FFD0E0FED0E0FDAB822096
:100A6E00E7101BEB60BAEC2CFCEF33FFEE33FEED20
:100A7E0033FD020AECE803F830E705C0F075F0002C
:100A8E00EF2FFFEE33FEED33FD40B830E7C280AA04
:100A9E00EDD2E7CD33EC3392D524814006E4FFFE50
:100AAE00FDFC22FCE4CFCECDCC24E0501174FF80AF
:100ABE00EDC3CC13CCCD13CDCE13CECF13CF04704C
:070ACE00F030D5DE020BAA97
:100BD8003E9248DA3ECCCCCD3F2AAAAB400000007A
:100BE8003F8000003F9837F03FB504F33FD744FCFF
:100BF8003E3172173EB172173F0515913EDE5BD943
:100C0800D2008002C200EDD2E7F8CD33EC33047095
:100C18000BBD800592D5020B14020B0A40FBD314BE
:100C280060F2F5F07C3FEE7A00C39496C8948B404E
:100C3800230AC89469C8941A401A0AC89468C894C0
:100C48001F40110AC8945AC89425400805F07A0034
:100C5800CDC2E7CDC0F08C3B8D3C8E3D8F3EEA2364
:100C680023C0E024E8F582E4340BF583120BC812A4
:100C78000807ECC0E0EDC0E0EEC0E0EFC0E0120B0A
:100C8800B8A83BA93CAA3DAB3E120803D0E0FBD074
:100C9800E0FAD0E0F9D0E0B2E7F8120A018C3B8D17
:100CA8003C8E3D8F3E900BD87403120B5DA83BA978
:100CB8003CAA3DAB3E1208F8D0E0600F24F4F58260
:100CC800E4340BF583120BC81208078C3B8D3C8E5D
:100CD8003D8F3ED0E0C3947FFDE49400FC120B24CA
:100CE8007B187A727931783F1208F8A83BA93CAA98
:100CF8003DAB3E12080730000B7BD97A5B79DE7872
:050D08003E1208F82274
:100AD500E9D2E7C933E833F892D5EDD2E7CD33EC67
:070AE50033FC5002B2D522E0
:100AEC00EC30E7100FBF000C0EBE00080DBD00046B
:100AFC000BEB6014A2D5EB13FCED92E7FD2274FF17
:100B0C00FCFDFEFF22E480F8A2D574FF13FC7D806F
:030B1C00E480EF83
:100B1F0075F020800E75F010800575F0087D007E51
:100B2F00007F003392D530D503120BAAEC3340105F
:100B3F00EF33FFEE33FEED33FDEC33FCD5F0ED225A
:0E0B4F00E5F0247EA2D513CC92E7CDCEFF2296
:100B5D00C0E0EFFBEEFAEDF9ECF81208F8D0E0F595
:100B6D00F0EFFBEEFAEDF9ECF8120BB8A3A3A3A38B
:100B7D00E8C0E0E9C0E0EAC0E0EBC0E0C0F0120878
:100B8D00F8120BC8A3A3A3A3120807D0F0D0E0FB63
:0D0B9D00D0E0FAD0E0F9D0E0F8D5F0D42295
:0E0BAA00C3E49FFFE49EFEE49DFDE49CFC225C
:100BB800E493FC740193FD740293FE740393FF2283
:100BC800E493F8740193F9740293FA740393FB2283
:00000001FF
