:03000000020949A9
:0C094900787FE4F6D8FD75810A0208B141
:0D093C002068656C6C6F20776F726C640032
:1008B1001209287BFF7A09793C1208E97F107E270B
:1008C100120916120928D2A2C2A37F327E00120990
:1008D10016D2A320A4FDC2A27F807E00120955AFCB
:0808E1009012086ED2A480DE23
:08090E008FB0C2A17F057E003D
:10091600E4FDFCC3ED9FEC9E50070DBD00010C806D
:01092600F2DE
:0109270022AD
:08095500C2A012090ED2A1227A
:08095D00D2A012090ED2A12262
:100928007F381209557F0C1209557F011209557F2E
:0409380080020955DB
:1008E9008B088A09890AAB08AA09A90A12080060B3
:1008F90013050AE50A7002050914F9120800FF1226
:05090900095D80E222FF
:10086E00EF75F00A84FB7A00EF75F00A84AFF0752D
:10087E0008008F097C007D0AAF037E001208198DD7
:10088E00827E00AF037C007D0A120819EF2430FF30
:10089E0012095DE5822430FF12095DE5092430FF5F
:0308AE0002095DDF
:10080000BB010689828A83E0225002E722BBFE02F6
:09081000E32289828A83E4932229
:10081900BC000BBE0029EF8DF084FFADF022E4CCC3
:10082900F875F008EF2FFFEE33FEEC33FCEE9DEC8C
:10083900984005FCEE9DFE0FD5F0E9E4CEFD22EDD2
:10084900F8F5F0EE8420D21CFEADF075F008EF2F1C
:10085900FFED33FD4007985006D5F0F222C398FD0D
:050869000FD5F0EA22AA
:00000001FF
