:0300000002087380
:0C087300787FE4F6D8FD758107020800CC
:06085B00D2A07FE87E033D
:10086100E4FDFCC3ED9FEC9E50070DBD00010C8023
:01087100F294
:010872002263
:10080000D2A2C2A37F647E00120861D2A320A4FDFD
:10081000C2A2D2A4AF90C3EF940A74809480500B0C
:1008200012085BC2A07F107E278011AF90C3EF94A7
:100830001E74809480500A12085BC2A01208618066
:10084000BFAF90C3EF94287480948050B312085BBC
:0B085000C2A07F327E0012086180A56C
:00000001FF
