:030000000208DD16
:0C08DD00787FE4F6D8FD75810A0208312E
:1008CC00204144432076616C7565203A202020201D
:0108DC00001B
:100831001208B87BFF7A0879CC120860D2A2C2A351
:100841007F647E0012088DD2A320A4FDC2A27F8BFB
:0F0851001208E9E59025E0FF120800D2A480DD2F
:10080000EF75F00A84FEEF75F00A8485F009EE7545
:10081000F00A8485F008EE75F00A842430FF12088F
:10082000F1E5082430FF1208F1E5092430FF020841
:01083000F1D6
:080885008FB0C2A17F057E00C7
:10088D00E4FDFCC3ED9FEC9E50070DBD00010C80F7
:01089D00F268
:01089E002237
:1008B8007F381208E97F0C1208E97F011208E97FE6
:0408C800800208E9B9
:0808E900C2A0120885D2A12271
:0808F100D2A0120885D2A12259
:100860008B088A09890AAB08AA09A90A12089F609D
:1008700013050AE50A7002050914F912089FFF1210
:0508800008F180E222F6
:10089F00BB010689828A83E0225002E722BBFE0257
:0908AF00E32289828A83E493228A
:00000001FF
