:030000000208757E
:0C087500787FE4F6D8FD75810B020800C6
:10080000750A00750B01E50B6401450A7004C2B05E
:10081000C2B1D2B0C2B1E4F508F509AE08AF09E43F
:10082000FCFD7BE87AFDF9F8D312085F400A050960
:10083000E50970E7050880E3C2B0D2B1E4F508F538
:1008400009AE08AF09E4FCFD7BE87AFDF9F8D312A4
:0F085000085F400A0509E50970E7050880E32203
:10085F00EB9FF5F0EA9E42F0E99D42F0EC6480C810
:06086F0064809845F022B0
:00000001FF
