:03000000020800F3
:0C080000787FE4F6D8FD758110020847EF
:10091800205741544552204C4556454C3A200050EA
:10092800554D503A2020202020200031303025001D
:100938003735250035302500323525003025002D86
:10094800004F4646004F4E004D414E55414C004128
:0409580055544F00A3
:0C0A4500020A0001020C00000208000080
:10095C001209FF7BFF7A09791812098B12088C7F18
:10096C00C0120A257BFF7A09792712098B1209B06C
:0F097C007FCA120A251209CB7F887E13020A1345
:10088C0020931620921320911020900D7F8D120A28
:10089C00257BFF7A097933806F30931620921320D1
:1008AC00911020900D7F8D120A257BFF7A097938E3
:1008BC00805630931630921320911020900D7F8D1E
:1008CC00120A257BFF7A09793C803D3093163092D1
:1008DC001330911020900D7F8D120A257BFF7A0921
:1008EC007940802430931630921330911030900D53
:1008FC007F8D120A257BFF7A097944800B7F8E123B
:0C090C000A257BFF7A09794712098B222B
:1009B0007FC5120A25E50D450C7BFF70067A097983
:0B09C0004980047A09794D12098B224E
:1009CB007FCA120A25E50B450A7BFF70067A097967
:0B09DB005080047A09795712098B2222
:100A1300E4FDFCC3ED9FEC9E50070DBD00010C806F
:010A2300F2E0
:010A240022AF
:1009FF007F38120A257F0C120A257F01120A257FE4
:040A0F0080020A2532
:100A2500C2A08FB0D2A17FC87E00120A13C2A12234
:100A3500D2A08FB0D2A17F647E00120A13C2A12278
:10098B008B0E8A0F8910AB0EAA0FA9101209E66005
:10099B00130510E5107002050F14F91209E6FF128A
:0509AB000A3580E22284
:10080C0002095CE493A3F8E493A34003F68001F29D
:10081C0008DFF48029E493A3F85407240CC8C333ED
:10082C00C4540F4420C8834004F456800146F6DFBC
:10083C00E4800B0102040810204080900A45E47EFD
:10084C00019360BCA3FF543F30E509541FFEE493B1
:10085C00A360010ECF54C025E060A840B8E493A378
:10086C00FAE493A3F8E493A3C8C582C8CAC583CAA3
:10087C00F0A3C8C582C8CAC583CADFE9DEE780BE5B
:010A510000A4
:1009E600BB010689828A83E0225002E722BBFE020F
:0909F600E32289828A83E4932242
:00000001FF
